// Imports that need to be added manually
use bitcoin::bech32::u5;
use bitcoin::blockdata::script::Script;
use bitcoin::secp256k1::{PublicKey, Scalar, Secp256k1, SecretKey};
use bitcoin::secp256k1::ecdh::SharedSecret;
use bitcoin::secp256k1::ecdsa::RecoverableSignature;

use lightning::chain::keysinterface::{Recipient, KeyMaterial, EntropySource, NodeSigner, SignerProvider};
use lightning::ln::msgs::{self, DecodeError, OnionMessageHandler};
use lightning::ln::script::ShutdownScript;
use lightning::util::enforcing_trait_impls::EnforcingSigner;
use lightning::util::logger::Logger;
use lightning::util::ser::{Readable, Writeable, Writer};
use lightning::onion_message::{CustomOnionMessageContents, CustomOnionMessageHandler, OnionMessenger};

use crate::utils::test_logger;

use std::io::{self, Cursor};
use std::sync::atomic::{AtomicU64, Ordering};

#[inline]
/// Actual fuzz test, method signature and name are fixed
pub fn do_test<L: Logger>(data: &[u8], logger: &L) {
	if let Ok(msg) = <msgs::OnionMessage as Readable>::read(&mut Cursor::new(data)) {
		let mut secret_bytes = [0; 32];
		secret_bytes[31] = 2;
		let secret = SecretKey::from_slice(&secret_bytes).unwrap();
		let keys_manager = KeyProvider {
			node_secret: secret,
			counter: AtomicU64::new(0),
		};
		let custom_msg_handler = TestCustomMessageHandler {};
		let onion_messenger = OnionMessenger::new(&keys_manager, &keys_manager, logger, &custom_msg_handler);
		let mut pk = [2; 33]; pk[1] = 0xff;
		let peer_node_id_not_used = PublicKey::from_slice(&pk).unwrap();
		onion_messenger.handle_onion_message(&peer_node_id_not_used, &msg);
	}
}

/// Method that needs to be added manually, {name}_test
pub fn onion_message_test<Out: test_logger::Output>(data: &[u8], out: Out) {
	let logger = test_logger::TestLogger::new("".to_owned(), out);
	do_test(data, &logger);
}

/// Method that needs to be added manually, {name}_run
#[no_mangle]
pub extern "C" fn onion_message_run(data: *const u8, datalen: usize) {
	let logger = test_logger::TestLogger::new("".to_owned(), test_logger::DevNull {});
	do_test(unsafe { std::slice::from_raw_parts(data, datalen) }, &logger);
}

struct TestCustomMessage {}

const CUSTOM_MESSAGE_TYPE: u64 = 4242;
const CUSTOM_MESSAGE_CONTENTS: [u8; 32] = [42; 32];

impl CustomOnionMessageContents for TestCustomMessage {
	fn tlv_type(&self) -> u64 {
		CUSTOM_MESSAGE_TYPE
	}
}

impl Writeable for TestCustomMessage {
	fn write<W: Writer>(&self, w: &mut W) -> Result<(), io::Error> {
		Ok(CUSTOM_MESSAGE_CONTENTS.write(w)?)
	}
}

struct TestCustomMessageHandler {}

impl CustomOnionMessageHandler for TestCustomMessageHandler {
	type CustomMessage = TestCustomMessage;
	fn handle_custom_message(&self, _msg: Self::CustomMessage) {}
	fn read_custom_message<R: io::Read>(&self, _message_type: u64, buffer: &mut R) -> Result<Option<Self::CustomMessage>, msgs::DecodeError> {
		let mut buf = Vec::new();
		buffer.read_to_end(&mut buf)?;
		return Ok(Some(TestCustomMessage {}))
	}
}

pub struct VecWriter(pub Vec<u8>);
impl Writer for VecWriter {
	fn write_all(&mut self, buf: &[u8]) -> Result<(), ::std::io::Error> {
		self.0.extend_from_slice(buf);
		Ok(())
	}
}
struct KeyProvider {
	node_secret: SecretKey,
	counter: AtomicU64,
}

impl EntropySource for KeyProvider {
	fn get_secure_random_bytes(&self) -> [u8; 32] {
		let ctr = self.counter.fetch_add(1, Ordering::Relaxed);
		[0, 0, 0, 0, 0, 0, 0, 0, 0, 0, 0, 0, 0, 0, 0, 0, 0, 0, 0, 0, 0, 0, 0,
			(ctr >> 8*7) as u8, (ctr >> 8*6) as u8, (ctr >> 8*5) as u8, (ctr >> 8*4) as u8, (ctr >> 8*3) as u8, (ctr >> 8*2) as u8, (ctr >> 8*1) as u8, 14, (ctr >> 8*0) as u8]
	}
}

impl NodeSigner for KeyProvider {
	fn get_node_id(&self, recipient: Recipient) -> Result<PublicKey, ()> {
		let node_secret = match recipient {
			Recipient::Node => Ok(&self.node_secret),
			Recipient::PhantomNode => Err(())
		}?;
		Ok(PublicKey::from_secret_key(&Secp256k1::signing_only(), node_secret))
	}

	fn ecdh(&self, recipient: Recipient, other_key: &PublicKey, tweak: Option<&Scalar>) -> Result<SharedSecret, ()> {
		let mut node_secret = match recipient {
			Recipient::Node => Ok(self.node_secret.clone()),
			Recipient::PhantomNode => Err(())
		}?;
		if let Some(tweak) = tweak {
			node_secret = node_secret.mul_tweak(tweak).map_err(|_| ())?;
		}
		Ok(SharedSecret::new(other_key, &node_secret))
	}

	fn get_inbound_payment_key_material(&self) -> KeyMaterial { unreachable!() }

	fn sign_invoice(&self, _hrp_bytes: &[u8], _invoice_data: &[u5], _recipient: Recipient) -> Result<RecoverableSignature, ()> {
		unreachable!()
	}

	fn sign_gossip_message(&self, _msg: lightning::ln::msgs::UnsignedGossipMessage) -> Result<bitcoin::secp256k1::ecdsa::Signature, ()> {
		unreachable!()
	}
}

impl SignerProvider for KeyProvider {
	type Signer = EnforcingSigner;

	fn generate_channel_keys_id(&self, _inbound: bool, _channel_value_satoshis: u64, _user_channel_id: u128) -> [u8; 32] { unreachable!() }

	fn derive_channel_signer(&self, _channel_value_satoshis: u64, _channel_keys_id: [u8; 32]) -> Self::Signer {
		unreachable!()
	}

	fn read_chan_signer(&self, _data: &[u8]) -> Result<EnforcingSigner, DecodeError> { unreachable!() }

	fn get_destination_script(&self) -> Script { unreachable!() }

	fn get_shutdown_scriptpubkey(&self) -> ShutdownScript { unreachable!() }
}

#[cfg(test)]
mod tests {
	use lightning::util::logger::{Logger, Record};
	use std::collections::HashMap;
	use std::sync::Mutex;

	struct TrackingLogger {
		/// (module, message) -> count
		pub lines: Mutex<HashMap<(String, String), usize>>,
	}
	impl Logger for TrackingLogger {
		fn log(&self, record: &Record) {
			*self.lines.lock().unwrap().entry((record.module_path.to_string(), format!("{}", record.args))).or_insert(0) += 1;
			println!("{:<5} [{} : {}, {}] {}", record.level.to_string(), record.module_path, record.file, record.line, record.args);
		}
	}

	#[test]
	fn test_no_onion_message_breakage() {
		let one_hop_om = "020000000000000000000000000000000000000000000000000000000000000e01055600020000000000000000000000000000000000000000000000000000000000000e0136041095000000000000000000000000000000fd1092202a2a2a2a2a2a2a2a2a2a2a2a2a2a2a2a2a2a2a2a2a2a2a2a2a2a2a2a2a2a2a2a000000000000000000000000000000000000000000000000000000000000000000000000000000000000000000000000000000000000000000000000000000000000000000000000000000000000000000000000000000000000000000000000000000000000000000000000000000000000000000000000000000000000000000000000000000000000000000000000000000000000000000000000000000000000000000000000000000000000000000000000000000000000000000000000000000000000000000000000000000000000000000000000000000000000000000000000000000000000000000000000000000000000000000000000000000000000000000000000000000000000000000000000000000000000000000000000000000000000000000000000000000000000000000000000000000000000000000000000000000000000000000000000000000000000000000000000000000000000000000000000000000000000000000000000000000000000000000000000000000000000000000000000000000000000000000000000000000000000000000000000000000000000000000000000000000000000000000000000000000000000000000000000000000000000000000000000000000000000000000000000000000000000000000000000000000000000000000000000000000000000000000000000000000000000000000000000000000000000000000000000000000000000000000000000000000000000000000000000000000000000000000000000000000000000000000000000000000000000000000000000000000000000000000000000000000000000000000000000000000000000000000000000000000000000000000000000000000000000000000000000000000000000000000000000000000000000000000000000000000000000000000000000000000000000000000000000000000000000000000000000000000000000000000000000000000000000000000000000000000000000000000000000000000000000000000000000000000000000000000000000000000000000000000000000000000000000000000000000000000000000000000000000000000000000000000000000000000000000000000000000000000000000000000000000000000000000000000000000000000000000000000000000000000000000000000000000000000000000000000000000000000000000000000000000000000000000000000000000000000000000000000000000000000000000000000000000000000000000000000000000000000000000000000000000000000000000000000000000000000000000000000000000000000000000000000000000000000000000000000000000000000000000000000000000000000000000000000000000000000000000000000000000000000000000000000000000000000000000000000000000000000000000000000000000000000000000000000000000000000000000000000000000000000000000000000000000000000000000000000000000000000000000000000000000000000000000000000000000000000000000000000000000000000000000000000000000000000000000000000000000000000000000000000000000000000000000000000000000000000000000000000000000000000000000000000e800000000000000000000000000000000000000000000000000000000000000";
		let logger = TrackingLogger { lines: Mutex::new(HashMap::new()) };
		super::do_test(&::hex::decode(one_hop_om).unwrap(), &logger);
		{
			let log_entries = logger.lines.lock().unwrap();
			assert_eq!(log_entries.get(&("lightning::onion_message::messenger".to_string(),
						"Received an onion message with path_id None and no reply_path".to_string())), Some(&1));
		}

		let two_unblinded_hops_om = "020000000000000000000000000000000000000000000000000000000000000e01055600020000000000000000000000000000000000000000000000000000000000000e0135043304210200000000000000000000000000000000000000000000000000000000000000029500000000000000000000000000000036000000000000000000000000000000000000000000000000000000000000003604104b000000000000000000000000000000fd1092202a2a2a2a2a2a2a2a2a2a2a2a2a2a2a2a2a2a2a2a2a2a2a2a2a2a2a2a2a2a2a2a00000000000000000000000000000000000000000000000000000000000000000000000000000000000000000000000000000000000000000000000000000000000000000000000000000000000000000000000000000000000000000000000000000000000000000000000000000000000000000000000000000000000000000000000000000000000000000000000000000000000000000000000000000000000000000000000000000000000000000000000000000000000000000000000000000000000000000000000000000000000000000000000000000000000000000000000000000000000000000000000000000000000000000000000000000000000000000000000000000000000000000000000000000000000000000000000000000000000000000000000000000000000000000000000000000000000000000000000000000000000000000000000000000000000000000000000000000000000000000000000000000000000000000000000000000000000000000000000000000000000000000000000000000000000000000000000000000000000000000000000000000000000000000000000000000000000000000000000000000000000000000000000000000000000000000000000000000000000000000000000000000000000000000000000000000000000000000000000000000000000000000000000000000000000000000000000000000000000000000000000000000000000000000000000000000000000000000000000000000000000000000000000000000000000000000000000000000000000000000000000000000000000000000000000000000000000000000000000000000000000000000000000000000000000000000000000000000000000000000000000000000000000000000000000000000000000000000000000000000000000000000000000000000000000000000000000000000000000000000000000000000000000000000000000000000000000000000000000000000000000000000000000000000000000000000000000000000000000000000000000000000000000000000000000000000000000000000000000000000000000000000000000000000000000000000000000000000000000000000000000000000000000000000000000000000000000000000000000000000000000000000000000000000000000000000000000000000000000000000000000000000000000000000000000000000000000000000000000000000000000000000000000000000000000000000000000000000000000000000000000000000000000000000000000000000000000000000000000000000000000000000000000000000000000000000000000000000000000000000000000000000000000000000000000000000000000000000000000000000000000000000000000000000000000000000000000000000000000000000000000000000000000000000000000000000000000000000000000000000000000000000000000000000000000000000000000000000000000000000000000000000000000000000000000000000000000000b200000000000000000000000000000000000000000000000000000000000000";
		let logger = TrackingLogger { lines: Mutex::new(HashMap::new()) };
		super::do_test(&::hex::decode(two_unblinded_hops_om).unwrap(), &logger);
		{
			let log_entries = logger.lines.lock().unwrap();
			assert_eq!(log_entries.get(&("lightning::onion_message::messenger".to_string(), "Forwarding an onion message to peer 020000000000000000000000000000000000000000000000000000000000000002".to_string())), Some(&1));
		}

		let two_unblinded_two_blinded_om = "020000000000000000000000000000000000000000000000000000000000000e01055600020000000000000000000000000000000000000000000000000000000000000e01350433042102000000000000000000000000000000000000000000000000000000000000000295000000000000000000000000000000400000000000000000000000000000000000000000000000000000000000000058045604210200000000000000000000000000000000000000000000000000000000000000020821020000000000000000000000000000000000000000000000000000000000000e014b000000000000000000000000000000b20000000000000000000000000000000000000000000000000000000000000035043304210200000000000000000000000000000000000000000000000000000000000000029500000000000000000000000000000036000000000000000000000000000000000000000000000000000000000000003604104b000000000000000000000000000000fd1092202a2a2a2a2a2a2a2a2a2a2a2a2a2a2a2a2a2a2a2a2a2a2a2a2a2a2a2a2a2a2a2a00000000000000000000000000000000000000000000000000000000000000000000000000000000000000000000000000000000000000000000000000000000000000000000000000000000000000000000000000000000000000000000000000000000000000000000000000000000000000000000000000000000000000000000000000000000000000000000000000000000000000000000000000000000000000000000000000000000000000000000000000000000000000000000000000000000000000000000000000000000000000000000000000000000000000000000000000000000000000000000000000000000000000000000000000000000000000000000000000000000000000000000000000000000000000000000000000000000000000000000000000000000000000000000000000000000000000000000000000000000000000000000000000000000000000000000000000000000000000000000000000000000000000000000000000000000000000000000000000000000000000000000000000000000000000000000000000000000000000000000000000000000000000000000000000000000000000000000000000000000000000000000000000000000000000000000000000000000000000000000000000000000000000000000000000000000000000000000000000000000000000000000000000000000000000000000000000000000000000000000000000000000000000000000000000000000000000000000000000000000000000000000000000000000000000000000000000000000000000000000000000000000000000000000000000000000000000000000000000000000000000000000000000000000000000000000000000000000000000000000000000000000000000000000000000000000000000000000000000000000000000000000000000000000000000000000000000000000000000000000000000000000000000000000000000000000000000000000000000000000000000000000000000000000000000000000000000000000000000000000000000000000000000000000000000000000000000000000000000000000000000000000000000000000000000000000000000000000000000000000000000000000000000000000000000000000000000000000000000000000000000000000000000000000000000000000000000000000000000000000000000000000000000000000000000000000000000000000000000000000000000000000000000000000000000000000000000000000b200000000000000000000000000000000000000000000000000000000000000";
		let logger = TrackingLogger { lines: Mutex::new(HashMap::new()) };
		super::do_test(&::hex::decode(two_unblinded_two_blinded_om).unwrap(), &logger);
		{
			let log_entries = logger.lines.lock().unwrap();
			assert_eq!(log_entries.get(&("lightning::onion_message::messenger".to_string(), "Forwarding an onion message to peer 020000000000000000000000000000000000000000000000000000000000000002".to_string())), Some(&1));
		}

		let three_blinded_om = "020000000000000000000000000000000000000000000000000000000000000e01055600020000000000000000000000000000000000000000000000000000000000000e013504330421020000000000000000000000000000000000000000000000000000000000000002950000000000000000000000000000006c0000000000000000000000000000000000000000000000000000000000000035043304210200000000000000000000000000000000000000000000000000000000000000024b000000000000000000000000000000ac00000000000000000000000000000000000000000000000000000000000000360410d1000000000000000000000000000000fd1092202a2a2a2a2a2a2a2a2a2a2a2a2a2a2a2a2a2a2a2a2a2a2a2a2a2a2a2a2a2a2a2a0000000000000000000000000000000000000000000000000000000000000000000000000000000000000000000000000000000000000000000000000000000000000000000000000000000000000000000000000000000000000000000000000000000000000000000000000000000000000000000000000000000000000000000000000000000000000000000000000000000000000000000000000000000000000000000000000000000000000000000000000000000000000000000000000000000000000000000000000000000000000000000000000000000000000000000000000000000000000000000000000000000000000000000000000000000000000000000000000000000000000000000000000000000000000000000000000000000000000000000000000000000000000000000000000000000000000000000000000000000000000000000000000000000000000000000000000000000000000000000000000000000000000000000000000000000000000000000000000000000000000000000000000000000000000000000000000000000000000000000000000000000000000000000000000000000000000000000000000000000000000000000000000000000000000000000000000000000000000000000000000000000000000000000000000000000000000000000000000000000000000000000000000000000000000000000000000000000000000000000000000000000000000000000000000000000000000000000000000000000000000000000000000000000000000000000000000000000000000000000000000000000000000000000000000000000000000000000000000000000000000000000000000000000000000000000000000000000000000000000000000000000000000000000000000000000000000000000000000000000000000000000000000000000000000000000000000000000000000000000000000000000000000000000000000000000000000000000000000000000000000000000000000000000000000000000000000000000000000000000000000000000000000000000000000000000000000000000000000000000000000000000000000000000000000000000000000000000000000000000000000000000000000000000000000000000000000000000000000000000000000000000000000000000000000000000000000000000000000000000000000000000000000000000000000000000000000000000000000000000000000000000000000000000000000000000000000000000000000000000000000000000000000000000000000000000000000000000000000000000000000000000000000000000000000000000000000000000000000000000000000000000000000000000000000000000000000000000000000000000000000000000000000000000000000000000000000000000000b200000000000000000000000000000000000000000000000000000000000000";
		let logger = TrackingLogger { lines: Mutex::new(HashMap::new()) };
		super::do_test(&::hex::decode(three_blinded_om).unwrap(), &logger);
		{
			let log_entries = logger.lines.lock().unwrap();
			assert_eq!(log_entries.get(&("lightning::onion_message::messenger".to_string(), "Forwarding an onion message to peer 020000000000000000000000000000000000000000000000000000000000000002".to_string())), Some(&1));
		}
	}
}
